{
  "contractName": "Vouchers",
  "abi": [
    {
      "constant": true,
      "inputs": [],
      "name": "contactInformation",
      "outputs": [
        {
          "name": "",
          "type": "string"
        }
      ],
      "payable": false,
      "stateMutability": "view",
      "type": "function"
    },
    {
      "constant": true,
      "inputs": [
        {
          "name": "",
          "type": "uint256"
        }
      ],
      "name": "vouchers",
      "outputs": [
        {
          "name": "sold",
          "type": "bool"
        },
        {
          "name": "revoked",
          "type": "bool"
        },
        {
          "name": "owner",
          "type": "address"
        },
        {
          "name": "buyer",
          "type": "address"
        },
        {
          "name": "title",
          "type": "string"
        },
        {
          "name": "description",
          "type": "string"
        },
        {
          "name": "price",
          "type": "uint256"
        },
        {
          "name": "index",
          "type": "uint256"
        }
      ],
      "payable": false,
      "stateMutability": "view",
      "type": "function"
    },
    {
      "constant": true,
      "inputs": [],
      "name": "stopped",
      "outputs": [
        {
          "name": "",
          "type": "bool"
        }
      ],
      "payable": false,
      "stateMutability": "view",
      "type": "function"
    },
    {
      "constant": true,
      "inputs": [],
      "name": "owner",
      "outputs": [
        {
          "name": "",
          "type": "address"
        }
      ],
      "payable": false,
      "stateMutability": "view",
      "type": "function"
    },
    {
      "constant": false,
      "inputs": [
        {
          "name": "info",
          "type": "string"
        }
      ],
      "name": "setContactInformation",
      "outputs": [],
      "payable": false,
      "stateMutability": "nonpayable",
      "type": "function"
    },
    {
      "constant": false,
      "inputs": [
        {
          "name": "newOwner",
          "type": "address"
        }
      ],
      "name": "transferOwnership",
      "outputs": [],
      "payable": false,
      "stateMutability": "nonpayable",
      "type": "function"
    },
    {
      "inputs": [],
      "payable": false,
      "stateMutability": "nonpayable",
      "type": "constructor"
    },
    {
      "anonymous": false,
      "inputs": [
        {
          "indexed": false,
          "name": "owner",
          "type": "address"
        },
        {
          "indexed": false,
          "name": "buyer",
          "type": "address"
        },
        {
          "indexed": false,
          "name": "title",
          "type": "string"
        },
        {
          "indexed": false,
          "name": "description",
          "type": "string"
        },
        {
          "indexed": false,
          "name": "sold",
          "type": "bool"
        },
        {
          "indexed": false,
          "name": "revoked",
          "type": "bool"
        },
        {
          "indexed": false,
          "name": "price",
          "type": "uint256"
        },
        {
          "indexed": false,
          "name": "index",
          "type": "uint256"
        }
      ],
      "name": "Inserted",
      "type": "event"
    },
    {
      "anonymous": false,
      "inputs": [
        {
          "indexed": false,
          "name": "index",
          "type": "uint256"
        }
      ],
      "name": "Sold",
      "type": "event"
    },
    {
      "anonymous": false,
      "inputs": [
        {
          "indexed": false,
          "name": "index",
          "type": "uint256"
        }
      ],
      "name": "Revoked",
      "type": "event"
    },
    {
      "anonymous": false,
      "inputs": [
        {
          "indexed": true,
          "name": "previousOwner",
          "type": "address"
        },
        {
          "indexed": true,
          "name": "newOwner",
          "type": "address"
        }
      ],
      "name": "OwnershipTransferred",
      "type": "event"
    },
    {
      "constant": true,
      "inputs": [],
      "name": "getCount",
      "outputs": [
        {
          "name": "count",
          "type": "uint256"
        }
      ],
      "payable": false,
      "stateMutability": "view",
      "type": "function"
    },
    {
      "constant": false,
      "inputs": [
        {
          "name": "title",
          "type": "string"
        },
        {
          "name": "description",
          "type": "string"
        },
        {
          "name": "price",
          "type": "uint256"
        }
      ],
      "name": "insert",
      "outputs": [
        {
          "name": "index",
          "type": "uint256"
        }
      ],
      "payable": false,
      "stateMutability": "nonpayable",
      "type": "function"
    },
    {
      "constant": true,
      "inputs": [
        {
          "name": "index",
          "type": "uint256"
        }
      ],
      "name": "get",
      "outputs": [
        {
          "name": "owner",
          "type": "address"
        },
        {
          "name": "buyer",
          "type": "address"
        },
        {
          "name": "title",
          "type": "string"
        },
        {
          "name": "description",
          "type": "string"
        },
        {
          "name": "sold",
          "type": "bool"
        },
        {
          "name": "revoked",
          "type": "bool"
        },
        {
          "name": "price",
          "type": "uint256"
        }
      ],
      "payable": false,
      "stateMutability": "view",
      "type": "function"
    },
    {
      "constant": false,
      "inputs": [
        {
          "name": "index",
          "type": "uint256"
        }
      ],
      "name": "buy",
      "outputs": [],
      "payable": true,
      "stateMutability": "payable",
      "type": "function"
    },
    {
      "constant": false,
      "inputs": [
        {
          "name": "index",
          "type": "uint256"
        }
      ],
      "name": "revoke",
      "outputs": [],
      "payable": false,
      "stateMutability": "nonpayable",
      "type": "function"
    },
    {
      "constant": false,
      "inputs": [],
      "name": "emergencyStop",
      "outputs": [],
      "payable": false,
      "stateMutability": "nonpayable",
      "type": "function"
    },
    {
      "constant": false,
      "inputs": [],
      "name": "emergencyStopEnd",
      "outputs": [],
      "payable": false,
      "stateMutability": "nonpayable",
      "type": "function"
    },
    {
      "constant": false,
      "inputs": [],
      "name": "kill",
      "outputs": [],
      "payable": false,
      "stateMutability": "nonpayable",
      "type": "function"
    }
  ],
  "bytecode": "0x60806040526000600360006101000a81548160ff0219169083151502179055503480156200002c57600080fd5b50336000806101000a81548173ffffffffffffffffffffffffffffffffffffffff021916908373ffffffffffffffffffffffffffffffffffffffff160217905550620000a26101206040519081016040528060f581526020016200201d60f59139620000a8640100000000026401000000009004565b620001cf565b6000809054906101000a900473ffffffffffffffffffffffffffffffffffffffff1673ffffffffffffffffffffffffffffffffffffffff163373ffffffffffffffffffffffffffffffffffffffff161415156200010457600080fd5b80600190805190602001906200011c92919062000120565b5050565b828054600181600116156101000203166002900490600052602060002090601f016020900481019282601f106200016357805160ff191683800117855562000194565b8280016001018555821562000194579182015b828111156200019357825182559160200191906001019062000176565b5b509050620001a39190620001a7565b5090565b620001cc91905b80821115620001c8576000816000905550600101620001ae565b5090565b90565b611e3e80620001df6000396000f3006080604052600436106100d0576000357c0100000000000000000000000000000000000000000000000000000000900463ffffffff16806320c5429b146100d557806336f7ab5e146101025780633e97b43f1461019257806341c0e1b51461032e5780634dee77041461034557806363a599a41461035c57806375f12b21146103735780638da5cb5b146103a25780639507d39a146103f9578063a87d942c1461058e578063b967a52e146105b9578063c1356d2614610622578063d96a094a146106ef578063f2fde38b1461070f575b600080fd5b3480156100e157600080fd5b5061010060048036038101908080359060200190929190505050610752565b005b34801561010e57600080fd5b50610117610b53565b6040518080602001828103825283818151815260200191508051906020019080838360005b8381101561015757808201518184015260208101905061013c565b50505050905090810190601f1680156101845780820380516001836020036101000a031916815260200191505b509250505060405180910390f35b34801561019e57600080fd5b506101bd60048036038101908080359060200190929190505050610bf1565b6040518089151515158152602001881515151581526020018773ffffffffffffffffffffffffffffffffffffffff1673ffffffffffffffffffffffffffffffffffffffff1681526020018673ffffffffffffffffffffffffffffffffffffffff1673ffffffffffffffffffffffffffffffffffffffff1681526020018060200180602001858152602001848152602001838103835287818151815260200191508051906020019080838360005b8381101561028557808201518184015260208101905061026a565b50505050905090810190601f1680156102b25780820380516001836020036101000a031916815260200191505b50838103825286818151815260200191508051906020019080838360005b838110156102eb5780820151818401526020810190506102d0565b50505050905090810190601f1680156103185780820380516001836020036101000a031916815260200191505b509a505050505050505050505060405180910390f35b34801561033a57600080fd5b50610343610dd2565b005b34801561035157600080fd5b5061035a610e67565b005b34801561036857600080fd5b50610371610edf565b005b34801561037f57600080fd5b50610388610f57565b604051808215151515815260200191505060405180910390f35b3480156103ae57600080fd5b506103b7610f6a565b604051808273ffffffffffffffffffffffffffffffffffffffff1673ffffffffffffffffffffffffffffffffffffffff16815260200191505060405180910390f35b34801561040557600080fd5b5061042460048036038101908080359060200190929190505050610f8f565b604051808873ffffffffffffffffffffffffffffffffffffffff1673ffffffffffffffffffffffffffffffffffffffff1681526020018773ffffffffffffffffffffffffffffffffffffffff1673ffffffffffffffffffffffffffffffffffffffff16815260200180602001806020018615151515815260200185151515158152602001848152602001838103835288818151815260200191508051906020019080838360005b838110156104e65780820151818401526020810190506104cb565b50505050905090810190601f1680156105135780820380516001836020036101000a031916815260200191505b50838103825287818151815260200191508051906020019080838360005b8381101561054c578082015181840152602081019050610531565b50505050905090810190601f1680156105795780820380516001836020036101000a031916815260200191505b50995050505050505050505060405180910390f35b34801561059a57600080fd5b506105a3611342565b6040518082815260200191505060405180910390f35b3480156105c557600080fd5b50610620600480360381019080803590602001908201803590602001908080601f016020809104026020016040519081016040528093929190818152602001838380828437820191505050505050919291929050505061134f565b005b34801561062e57600080fd5b506106d9600480360381019080803590602001908201803590602001908080601f0160208091040260200160405190810160405280939291908181526020018383808284378201915050505050509192919290803590602001908201803590602001908080601f0160208091040260200160405190810160405280939291908181526020018383808284378201915050505050509192919290803590602001909291905050506113c4565b6040518082815260200191505060405180910390f35b61070d6004803603810190808035906020019092919050505061177c565b005b34801561071b57600080fd5b50610750600480360381019080803573ffffffffffffffffffffffffffffffffffffffff169060200190929190505050611b22565b005b600360009054906101000a900460ff1615151561076e57600080fd5b80600060028281548110151561078057fe5b906000526020600020906006020160000160029054906101000a900473ffffffffffffffffffffffffffffffffffffffff1673ffffffffffffffffffffffffffffffffffffffff1614151515610864576040517f08c379a00000000000000000000000000000000000000000000000000000000081526004018080602001828103825260278152602001807f4120766f75636865722077697468207468697320696e64657820646f65736e2781526020017f742065786973740000000000000000000000000000000000000000000000000081525060400191505060405180910390fd5b60028281548110151561087357fe5b906000526020600020906006020160000160009054906101000a900460ff16151515610907576040517f08c379a000000000000000000000000000000000000000000000000000000000815260040180806020018281038252601e8152602001807f596f752063616e2774207265766f6b6520736f6c6420766f756368657273000081525060200191505060405180910390fd5b600060028381548110151561091857fe5b906000526020600020906006020160000160029054906101000a900473ffffffffffffffffffffffffffffffffffffffff1673ffffffffffffffffffffffffffffffffffffffff16141515156109d6576040517f08c379a00000000000000000000000000000000000000000000000000000000081526004018080602001828103825260158152602001807f496e76616c696420766f756368657220696e646578000000000000000000000081525060200191505060405180910390fd5b3373ffffffffffffffffffffffffffffffffffffffff166002838154811015156109fc57fe5b906000526020600020906006020160000160029054906101000a900473ffffffffffffffffffffffffffffffffffffffff1673ffffffffffffffffffffffffffffffffffffffff16141515610adf576040517f08c379a00000000000000000000000000000000000000000000000000000000081526004018080602001828103825260268152602001807f4f6e6c7920766f7563686572206f776e65722063616e207265766f6b6520766f81526020017f756368657273000000000000000000000000000000000000000000000000000081525060400191505060405180910390fd5b6001600283815481101515610af057fe5b906000526020600020906006020160000160016101000a81548160ff0219169083151502179055507f61e27b0bfd8e18e6b92ec32ce1c28bb698d27bfe93e84c7e94d4db0a3135c760826040518082815260200191505060405180910390a15050565b60018054600181600116156101000203166002900480601f016020809104026020016040519081016040528092919081815260200182805460018160011615610100020316600290048015610be95780601f10610bbe57610100808354040283529160200191610be9565b820191906000526020600020905b815481529060010190602001808311610bcc57829003601f168201915b505050505081565b600281815481101515610c0057fe5b90600052602060002090600602016000915090508060000160009054906101000a900460ff16908060000160019054906101000a900460ff16908060000160029054906101000a900473ffffffffffffffffffffffffffffffffffffffff16908060010160009054906101000a900473ffffffffffffffffffffffffffffffffffffffff1690806002018054600181600116156101000203166002900480601f016020809104026020016040519081016040528092919081815260200182805460018160011615610100020316600290048015610d1e5780601f10610cf357610100808354040283529160200191610d1e565b820191906000526020600020905b815481529060010190602001808311610d0157829003601f168201915b505050505090806003018054600181600116156101000203166002900480601f016020809104026020016040519081016040528092919081815260200182805460018160011615610100020316600290048015610dbc5780601f10610d9157610100808354040283529160200191610dbc565b820191906000526020600020905b815481529060010190602001808311610d9f57829003601f168201915b5050505050908060040154908060050154905088565b6000809054906101000a900473ffffffffffffffffffffffffffffffffffffffff1673ffffffffffffffffffffffffffffffffffffffff163373ffffffffffffffffffffffffffffffffffffffff16141515610e2d57600080fd5b6000809054906101000a900473ffffffffffffffffffffffffffffffffffffffff1673ffffffffffffffffffffffffffffffffffffffff16ff5b6000809054906101000a900473ffffffffffffffffffffffffffffffffffffffff1673ffffffffffffffffffffffffffffffffffffffff163373ffffffffffffffffffffffffffffffffffffffff16141515610ec257600080fd5b6000600360006101000a81548160ff021916908315150217905550565b6000809054906101000a900473ffffffffffffffffffffffffffffffffffffffff1673ffffffffffffffffffffffffffffffffffffffff163373ffffffffffffffffffffffffffffffffffffffff16141515610f3a57600080fd5b6001600360006101000a81548160ff021916908315150217905550565b600360009054906101000a900460ff1681565b6000809054906101000a900473ffffffffffffffffffffffffffffffffffffffff1681565b6000806060806000806000610fa2611c77565b886000600282815481101515610fb457fe5b906000526020600020906006020160000160029054906101000a900473ffffffffffffffffffffffffffffffffffffffff1673ffffffffffffffffffffffffffffffffffffffff1614151515611098576040517f08c379a00000000000000000000000000000000000000000000000000000000081526004018080602001828103825260278152602001807f4120766f75636865722077697468207468697320696e64657820646f65736e2781526020017f742065786973740000000000000000000000000000000000000000000000000081525060400191505060405180910390fd5b60028a8154811015156110a757fe5b906000526020600020906006020161010060405190810160405290816000820160009054906101000a900460ff161515151581526020016000820160019054906101000a900460ff161515151581526020016000820160029054906101000a900473ffffffffffffffffffffffffffffffffffffffff1673ffffffffffffffffffffffffffffffffffffffff1673ffffffffffffffffffffffffffffffffffffffff1681526020016001820160009054906101000a900473ffffffffffffffffffffffffffffffffffffffff1673ffffffffffffffffffffffffffffffffffffffff1673ffffffffffffffffffffffffffffffffffffffff168152602001600282018054600181600116156101000203166002900480601f01602080910402602001604051908101604052809291908181526020018280546001816001161561010002031660029004801561123d5780601f106112125761010080835404028352916020019161123d565b820191906000526020600020905b81548152906001019060200180831161122057829003601f168201915b50505050508152602001600382018054600181600116156101000203166002900480601f0160208091040260200160405190810160405280929190818152602001828054600181600116156101000203166002900480156112df5780601f106112b4576101008083540402835291602001916112df565b820191906000526020600020905b8154815290600101906020018083116112c257829003601f168201915b505050505081526020016004820154815260200160058201548152505091508160400151826060015183608001518460a00151856000015186602001518760c0015184945083935098509850985098509850985098505050919395979092949650565b6000600280549050905090565b6000809054906101000a900473ffffffffffffffffffffffffffffffffffffffff1673ffffffffffffffffffffffffffffffffffffffff163373ffffffffffffffffffffffffffffffffffffffff161415156113aa57600080fd5b80600190805190602001906113c0929190611ced565b5050565b60006113ce611c77565b600360009054906101000a900460ff161515156113ea57600080fd5b6000816000019015159081151581525050600081602001901515908115158152505033816040019073ffffffffffffffffffffffffffffffffffffffff16908173ffffffffffffffffffffffffffffffffffffffff1681525050848160800181905250838160a00181905250828160c001818152505060016002829080600181540180825580915050906001820390600052602060002090600602016000909192909190915060008201518160000160006101000a81548160ff02191690831515021790555060208201518160000160016101000a81548160ff02191690831515021790555060408201518160000160026101000a81548173ffffffffffffffffffffffffffffffffffffffff021916908373ffffffffffffffffffffffffffffffffffffffff16021790555060608201518160010160006101000a81548173ffffffffffffffffffffffffffffffffffffffff021916908373ffffffffffffffffffffffffffffffffffffffff160217905550608082015181600201908051906020019061157a929190611d6d565b5060a0820151816003019080519060200190611597929190611d6d565b5060c0820151816004015560e082015181600501555050039150818160e00181815250507fcd0a4238931310a3726f3c6dc8ff0c1c8bc1e1f690520bee24fbc0bc422618d68160400151826060015183608001518460a00151856000015186602001518760c001518860e00151604051808973ffffffffffffffffffffffffffffffffffffffff1673ffffffffffffffffffffffffffffffffffffffff1681526020018873ffffffffffffffffffffffffffffffffffffffff1673ffffffffffffffffffffffffffffffffffffffff16815260200180602001806020018715151515815260200186151515158152602001858152602001848152602001838103835289818151815260200191508051906020019080838360005b838110156116cc5780820151818401526020810190506116b1565b50505050905090810190601f1680156116f95780820380516001836020036101000a031916815260200191505b50838103825288818151815260200191508051906020019080838360005b83811015611732578082015181840152602081019050611717565b50505050905090810190601f16801561175f5780820380516001836020036101000a031916815260200191505b509a505050505050505050505060405180910390a1509392505050565b600360009054906101000a900460ff1615151561179857600080fd5b8060006002828154811015156117aa57fe5b906000526020600020906006020160000160029054906101000a900473ffffffffffffffffffffffffffffffffffffffff1673ffffffffffffffffffffffffffffffffffffffff161415151561188e576040517f08c379a00000000000000000000000000000000000000000000000000000000081526004018080602001828103825260278152602001807f4120766f75636865722077697468207468697320696e64657820646f65736e2781526020017f742065786973740000000000000000000000000000000000000000000000000081525060400191505060405180910390fd5b60028281548110151561189d57fe5b906000526020600020906006020160000160009054906101000a900460ff16151515611931576040517f08c379a00000000000000000000000000000000000000000000000000000000081526004018080602001828103825260178152602001807f566f756368657220697320616c726561647920736f6c6400000000000000000081525060200191505060405180910390fd5b60028281548110151561194057fe5b906000526020600020906006020160040154341415156119c8576040517f08c379a00000000000000000000000000000000000000000000000000000000081526004018080602001828103825260158152602001807f496e76616c696420616d6f756e74206f6620776569000000000000000000000081525060200191505060405180910390fd5b60016002838154811015156119d957fe5b906000526020600020906006020160000160006101000a81548160ff02191690831515021790555033600283815481101515611a1157fe5b906000526020600020906006020160010160006101000a81548173ffffffffffffffffffffffffffffffffffffffff021916908373ffffffffffffffffffffffffffffffffffffffff160217905550600282815481101515611a6f57fe5b906000526020600020906006020160000160029054906101000a900473ffffffffffffffffffffffffffffffffffffffff1673ffffffffffffffffffffffffffffffffffffffff166108fc349081150290604051600060405180830381858888f19350505050158015611ae6573d6000803e3d6000fd5b507f92f64ca637d023f354075a4be751b169c1a8a9ccb6d33cdd0cb3520543995727826040518082815260200191505060405180910390a15050565b6000809054906101000a900473ffffffffffffffffffffffffffffffffffffffff1673ffffffffffffffffffffffffffffffffffffffff163373ffffffffffffffffffffffffffffffffffffffff16141515611b7d57600080fd5b600073ffffffffffffffffffffffffffffffffffffffff168173ffffffffffffffffffffffffffffffffffffffff1614151515611bb957600080fd5b8073ffffffffffffffffffffffffffffffffffffffff166000809054906101000a900473ffffffffffffffffffffffffffffffffffffffff1673ffffffffffffffffffffffffffffffffffffffff167f8be0079c531659141344cd1fd0a4f28419497f9722a3daafe3b4186f6b6457e060405160405180910390a3806000806101000a81548173ffffffffffffffffffffffffffffffffffffffff021916908373ffffffffffffffffffffffffffffffffffffffff16021790555050565b61010060405190810160405280600015158152602001600015158152602001600073ffffffffffffffffffffffffffffffffffffffff168152602001600073ffffffffffffffffffffffffffffffffffffffff168152602001606081526020016060815260200160008152602001600081525090565b828054600181600116156101000203166002900490600052602060002090601f016020900481019282601f10611d2e57805160ff1916838001178555611d5c565b82800160010185558215611d5c579182015b82811115611d5b578251825591602001919060010190611d40565b5b509050611d699190611ded565b5090565b828054600181600116156101000203166002900490600052602060002090601f016020900481019282601f10611dae57805160ff1916838001178555611ddc565b82800160010185558215611ddc579182015b82811115611ddb578251825591602001919060010190611dc0565b5b509050611de99190611ded565b5090565b611e0f91905b80821115611e0b576000816000905550600101611df3565b5090565b905600a165627a7a72305820c86686a128ec8773cc833d230f8f284d80ca78daa3caa1c8952faa67c7c6856d002943656e74617265756d20697320726566696e696e672074686520667574757265206f6620676c6f62616c20627269636b2026206d6f727461722072657461696c20627573696e6573732e57652061696d20746f20647269766520616e20696d70616374207468726f756768206120756e697175652c206561737920746f206f70657261746520616e6420437573746f6d65722d6c6f79616c7479206372656174696e6720656e642d746f2d656e642070726f78696d697479206261736564206d6f62696c65206d61726b6574696e6720706c6174666f726d20656e61626c656420627920426c6f636b636861696e20616e64204149",
  "source": "pragma solidity ^0.4.17;\n\nimport \"zeppelin/contracts/ownership/Ownable.sol\";\nimport \"zeppelin/contracts/ownership/Contactable.sol\";\n\ncontract Vouchers is Contactable {\n\n    event Inserted(address owner, address buyer, string title, string description, bool sold, bool revoked, uint price, uint index);\n    event Sold(uint index);\n    event Revoked(uint index);\n\n    struct Voucher {\n        // is this voucher sold already?\n        bool sold;\n\n        // is this voucher revoked by the voucher owner?\n        bool revoked;\n\n        // voucher was created by this owner\n        address owner;\n\n        // when sold, this is the owner of the voucher\n        address buyer;\n\n        string title;\n        string description;\n\n        // in wei\n        uint price;\n\n        // used for the vouchers array\n        uint index;\n    }\n\n    Voucher[] public vouchers;\n\n    bool public stopped = false;\n\n    modifier stopInEmergency {require(!stopped);\n        _;}\n\n    modifier voucherExists(uint index) {require(vouchers[index].owner != 0, \"A voucher with this index doesn't exist\");\n        _;}\n\n    constructor() public {\n        // Sets the contact information provided by OpenZeppelin and imported with EthPM\n        setContactInformation(\"Centareum is refining the future of global brick & mortar retail business.We aim to drive an impact through a unique, easy to operate and Customer-loyalty creating end-to-end proximity based mobile marketing platform enabled by Blockchain and AI\");\n    }\n\n    // get the current count of vouchers. This is used to fetch different vouchers.\n    function getCount()\n    public\n    constant\n    returns (uint count)\n    {\n        return vouchers.length;\n    }\n\n    // inserts a new voucher at.\n    function insert(string title, string description, uint price)\n    stopInEmergency\n    public\n    returns (uint index)\n    {\n        Voucher memory newVoucher;\n        newVoucher.sold = false;\n        newVoucher.revoked = false;\n        newVoucher.owner = msg.sender;\n        newVoucher.title = title;\n        newVoucher.description = description;\n        newVoucher.price = price;\n\n        index = vouchers.push(newVoucher) - 1;\n        newVoucher.index = index;\n\n        emit Inserted(newVoucher.owner, newVoucher.buyer, newVoucher.title, newVoucher.description, newVoucher.sold, newVoucher.revoked, newVoucher.price, newVoucher.index);\n    }\n\n    // get a voucher at the given index.\n    function get(uint index)\n    voucherExists(index)\n    public\n    constant\n    returns (address owner, address buyer, string title, string description, bool sold, bool revoked, uint price){\n        Voucher memory voucher = vouchers[index];\n        return (voucher.owner, voucher.buyer, voucher.title, voucher.description, voucher.sold, voucher.revoked, voucher.price);\n    }\n\n    // buy an available voucher at the given index.\n    function buy(uint index)\n    stopInEmergency\n    voucherExists(index)\n    payable\n    public {\n        require(!vouchers[index].sold, \"Voucher is already sold\");\n        require(msg.value == vouchers[index].price, \"Invalid amount of wei\");\n\n        vouchers[index].sold = true;\n        vouchers[index].buyer = msg.sender;\n        vouchers[index].owner.transfer(msg.value);\n        emit Sold(index);\n    }\n\n    // mark a voucher as \"revoked\" so that i can't be bought anymore.\n    function revoke(uint index)\n    stopInEmergency\n    voucherExists(index)\n    public {\n        require(!vouchers[index].sold, \"You can't revoke sold vouchers\");\n        require(vouchers[index].owner != 0, \"Invalid voucher index\");\n        require(vouchers[index].owner == msg.sender, \"Only voucher owner can revoke vouchers\");\n\n        vouchers[index].revoked = true;\n        emit Revoked(index);\n    }\n\n    // Circuit Breaker: After calling this, only a subset of functions can be executed\n    function emergencyStop()\n    onlyOwner\n    public {\n        stopped = true;\n    }\n\n    // Circuit Breaker: After calling this, everything can be exectued again.\n    function emergencyStopEnd()\n    onlyOwner\n    public {\n        stopped = false;\n    }\n\n    // Mortal Contract: Remove the contract and payout everything (which should be nothing) to the owner.\n    function kill()\n    onlyOwner\n    public {\n        selfdestruct(owner);\n    }\n}\n",
  "sourcePath": "C:\\Users\\Dr Sudhir\\Desktop\\Work\\Look n feel\\arbano-master\\contracts\\Vouchers.sol",
  "compiler": {
    "name": "solc",
    "version": "0.4.24+commit.e67f0147.Emscripten.clang"
  },
  "schemaVersion": "2.0.1",
  "updatedAt": "2018-10-12T18:08:16.275Z"
}